:100000000C94BF070C94EC070C94EC070C94EC07D1
:100010000C94EC070C94EC070C94EC070C94EC0794
:100020000C94EC070C94EC070C94EC070C94EC0784
:100030000C940A2F0C94EC070C94EC070C94EC072E
:100040000C94EC070C9436240C94EC070C94EC07FD
:100050000C94EC070C94EC070C94EC070C94EC0754
:100060000C94EC070C94E12E0C94B72E0C94EC0736
:100070000C94EC070C94EC070C94EC070C94EC0734
:100080000C94EC070C94EC070C94EC070C94EC0724
:100090000C94EC070C94EC070C94EC070C94EC0714
:1000A0000C94EC070C94EC070C94EC070C94EC0704
:1000B0000C94EC070C94EC070C94EC070C94EC07F4
:1000C0000C94EC070C94EC070C94EC070C94EC07E4
:1000D0000C94EC070C94EC070C94EC070C94EC07D4
:1000E0000C94EC070C94B02B0C9488220C949E1E5C
:1000F0000C9462290C94A71E0C94982E0C942D1627
:100100000C9481280C94AB2E0C942C210C941C1272
:100110000C94D4180C9407120C9473250C94FA28A0
:100120000C94551A0C94A81B0C94D2160C94891399
:100130000C949B100C9438140C944D0D0C94581C7A
:100140000C94A61F0C94650F0C949C160C94750FC0
:100150000C94FF1F0C949F140C9418290C94FF12FC
:100160000C94770D0C942A0D0C9423170C945514B1
:100170000C94C22A0C9484250C94FF100C94481201
:100180000C94502E0C9429230C94B22B0C94B81A76
:100190000C94581A0C944C120C94F1130C94D31523
:1001A0000C94641A0C94182A0C9470250C94A221B7
:1001B0000C9460150C94F4210C94DE0F0C94FD1A31
:1001C0000C9449160C94D02B0C94E80D0C94DA2363
:1001D0000C94AF200C94AD1A0C94E3220C941E20C6
:1001E0000C94AE160C94450D0C944D170C9466129D
:1001F0000C948A2A0C94A40F0C942C1F0C94262681
:100200000C9465210C94950D0C94E1100C94532ED4
:100210000C945A140C941D100C9490200C94C0143F
:100220000C9479180C94E2100C94A3120C94A62A46
:100230000C9444220400040000040700040002009F
:100240000004000000000404040004040704040087
:10025000000004000000000004040004040000008A
:100260000000000004070704000004000202040468
:100270000002030400040400040404040400000455
:100280000400000204000002020004000004000454
:10029000040004000400000000000000000102014E
:1002A000029302641A020100014D0ED315030200ED
:1002B00002350E182A040001000000581A05020039
:1002C000029302551406020002350EB81A07020006
:1002D00002350E2C210801000192029C1609030030
:1002E000032D0E581C0A0200029002770D0B00012C
:1002F000000000532E0C0600068A02D2160D0600DE
:10030000068402A61F0E020101480E07120F030009
:100310000381029E1E1001000192024D171101007F
:100320000192022D16120500057C026521130400BE
:10033000047802AE1614040003370E4D0D150500A7
:100340000573021829160400046F02C01417030075
:10035000023E0EFF1F180800086702950D190200E3
:100360000290029F141A050003640284251B0800F2
:10037000085C02C22A1C0300023E0E8A2A1D0400E9
:10038000045802A2211E030003430E23171F03007B
:10039000023E0E750F200300023E0E732521000160
:1003A000000000AB2E2206000652021E2023000190
:1003B000000000502E240100019202FD1A250400C5
:1003C000044E02E80D260001000000982E270400CC
:1003D000034B0289132805000546025A1429000020
:1003E00000000048122A0200029002FA282B0301A2
:1003F000032D0EE2102C030003400E2C1F2D0300D2
:10040000023E0EA62A2E0600065202F1132F01000C
:10041000014D0E4C12300400032A0EA81B310201BC
:100420000290021C12320500054102DE0F33020069
:10043000029002E32234030003430E1D1035010035
:10044000019202450D360500053C02661237030095
:10045000023E0E650F3804000339022626390300D8
:10046000023E0E90203A000100000049163B0200B7
:1004700002350E38143C0500053402A3123D02007B
:1004800002350E60153E0300032D0E81283F040047
:10049000044E02A40F40020101480EE11041000584
:1004A00000000078DA9D19696F1BB9F5AF7005047B
:1004B000ED168EA1198D46928B7CF0A16CDD8D1D01
:1004C0006F14372D8A6240CF5012E1B9760E1F5D4E
:1004D000F8BFF71D24873AB20B3440A021F9F8EE9B
:1004E00093FE6DF4D0EB3C4B9E54D3EAAA6C476765
:1004F000A34D9A9E893FFF7479F9A3989E46A763FE
:10050000F1A0CBBED3798BBBB7F7E2C22C7F14E14D
:1005100069189F86E3201E07E17474324AABA290EB
:100520006506487E1BC93CAF52D9A9A4D2592BD22B
:10053000AA2FBB0FEFD2D159303B01925D07B41205
:10054000993E0A38867D0FC03FCF327B5E572DFD26
:10055000E8F2C3BB5ED47D9E277D4DF0E162B8F02A
:100560006BAF9A578712187844E846B55DD2E9F424
:10057000B1E555D7C8B22D749758A2429720BFE174
:100580006F0E72E44A3649BBEDBBAC7A2E47671159
:100590008A56AEF506387AC927D1D492686B9DF099
:1005A000E7E82C1E804A99579B44978E79E27A742B
:1005B000360D1C8CE1D842F03219B430719099DEBE
:1005C000E84EE649D577BBF8C493CC7B85EB4CADC0
:1005D000659F7789DB28E44B92F58DECC0A4443904
:1005E0001C282B305057D53BB8524FA3A2ED545D79
:1005F000ABC6632658B8DBDB2C8A66F3B1BDDDB42D
:10060000896146D98F2C725F53F715BBAF99FB52A6
:10061000B97C75660116678E880E534B003E4157B4
:100620006C38F026FC05AF008BF2A578D053A9AA50
:100630005ABFA87C4F4999EC64D2EAFFC2D56D0F2E
:10064000AEDC25A81CCF1B5A055BBAF438990EF610
:10065000AE9F8B238A4F5FC143061C46EDDB7EDFD6
:1006600010B073608960E018BC67DF4382B17FEA35
:100670005CF0D0DF843D4A8A76F3E1DD5F20E6C29C
:10068000DDBBCFBADB02EB496A9D0C04F36877B39C
:1006900045E8CC983A33B669FEE8BE75E63E5FCBD6
:1006A00034D9B598488B2CD937E224F228901B39DD
:1006B000D661991867CB74633F51F3E88E102D9D76
:1006C0006A406F8899C3913010DFD12059B7554DDA
:1006D00051816BD6B93AA215FF38E95E6BC57287B6
:1006E000C3FD22ED65E30CDABC24072945746E13C3
:1006F000DDA5D385625F032E32F5D083AB41F8A030
:100700005FB1DEE3C8EEC3AD8D7710B8834649C84C
:10071000644DA61AC48F0E4C18A38505786E74A775
:100720000E2004EB0300C170AA50CD4695E92BE9D9
:100730000B543D85BD324B360D480B20012D49979A
:10074000DBAA500759B09545ED7BAD59BB1CB89B52
:10075000254114974E409270404E391678909D7204
:100760008E351F8E319CF64C6F72B7CD2BF6D204AE
:10077000F4B9D6902B213813368F489B9493C1C976
:100780006803888879809C9B2501813DCDBAAFD1D3
:1007900038C01EC86E1213D0079D806BBAD48ADF92
:1007A0006C8F68BA0786A6B26083D942C08E69A7EB
:1007B000A832BD7E4DC0071CAE4651AC0953208007
:1007C000053C35D762BEC6B6DE85C7BD2457A60A2E
:1007D000184063F37DF213905D67AAEC80B8A8D649
:1007E0006BA042D13664E39391CD752486B3C224C5
:1007F000F64EFA3A1B2CC426D8F61E9908A4645368
:10080000EED5B4E3657374B670F0FBE5EDFF74B13B
:100810006270319328871554E80D5CDCAAF4D1ABE3
:1008200043616479389606BE53EF3D323B54D01293
:1008300063C2D7AB6345D6A1ABFCDA1087F6CA5EBC
:100840006970E04E08D0716481D1F75D49F3329D43
:10085000916D4B550D7E35080914A82A814127E674
:1008600093EE7334ECD3830BE0D608E3CBB0D721FF
:1008700080A80730240055328772A7AC01FB215FA6
:100880002AD58BE10012B77358DD30E205035975A4
:10089000FC418904F74556B0B60DAEEBB9E5D49DE1
:1008A0007658F7FD146FDA00084BE5B503A0A5D91B
:1008B00070A5ADD6DDB36C947FB7D06D65137A515A
:1008C000B5FA58A93B401AC58C947AC5F590CBBCB3
:1008D000388538E42AFA7B39673ADB85FA4ECA99BB
:1008E0002014D425CEE69E7123BACF8913531E045B
:1008F000B2C65EC2057D008C9AA2B6A352CA2E2E45
:10090000F9707E0053715A38E6EF83AFC4C19BADD6
:1009100097D8C99F5F5D2637E7FFC4E604F9BCB8E6
:100920005F2577D7B72B6C32605AB8BB989CDC5DDB
:1009300084F03F187987DD331D5E8D4FEEAEF0E019
:10094000F2D3E7CB9F938F5F96BF20CB63FA7732CA
:10095000BAB9BC0728D9156A23C3693C06C0BB6F66
:10096000374C2D4457F8B2BC5C5EFF63997CBBBE2C
:10097000BDFAFC0D3BD1103757CB2FB0C95CA84650
:10098000CB1C692D81D61269C1E9F5F9A7E4E2FC17
:10099000FE0AD130A9D5D7F3AFAB64757FB3FA05A2
:1009A0004E564B3C89717B79975C2D3F9DFF6B7454
:1009B000F61EE556650F8596FA359A634C038A9FB5
:1009C00024D31860C069707D773E1E9DFD7B7C320C
:1009D000FF0FB07D81DF73FEBEC46F300C2DAE7093
:1009E00001998B164B5C4086A7C5475C44E6FE4FD9
:1009F000B43008FE868BA941F0775CCCCC9D9F89F2
:100A00008CB9F3891678E78DBDD5304A964146B149
:100A10004AEB1462B781CE24D19931A720B3AF3904
:100A2000CB72C13BCFD14D5E852DC81977AA97B245
:100A30001465D509882D81B12520CC39B605C5B6F8
:100A400078DE6AF866AF6A450D0E089478DEB077F6
:100A5000FB168141A98158578D0003FFD5AE758BD8
:100A6000A719EDD356CB43125CFD532764DBEA0D87
:100A7000793A9778DEA58448D0405C95B6AD1032BF
:100A8000EDF493E258BAE44154D4B201FF10AA69DC
:100A9000AA86264B7BD028C8CB6D479DCB47092221
:100AA00064A2AB04C50F0E1F148B1C7CD7250486D3
:100AB000CE841DD886F1919337975D0B652660CA69
:100AC000B7C31E80212BB25090F9B98CD9C3A27A3A
:100AD00052961B81630AB78DF6D80D356E8CE14EA8
:100AE000EFE0DC947B471F5B660B040A14D80B73A2
:100AF0001F677771FAB0418E33B4B78FA914B290E3
:100B000063B9E57C6821768A6FBAD5B5C18E9DCB75
:100B10008D7C41CF9A5B7D71F37603F39ADC2801DB
:100B2000ED2B245A6B0F4079A35BB47F0B953EEB02
:100B3000736C9FE132D61B613214B9AA7A52A8684D
:100B4000AC8CDFBF6080707EFF3ED0563619F9B0A6
:100B500081C626FA064D40655AC057B3CEAB67AE84
:100B600052B7155F420FE3FEEE16DC590AD602C6F5
:100B700011258268BA7B000ECE073876F807BAAC2A
:100B8000B94072434F47250A386C4794008534D1E9
:100B90005837D5066C5080301255B2864A047C8393
:100BA0008D144628F62F5F9411135D184308C8A0D2
:100BB00085C07AE8DF58C3570EE040A9E259E7B98B
:100BC000502F29E0DB9955799C1C6E3A9DFDCE0D86
:100BD0001CFE56109B6C7A62002174D11776CF866A
:100BE000CC8C216DECEE80DA4D038BEF022B3B07B2
:100BF00053E30D8429F22931B9471A14D4DCECAA45
:100C00004AAC256982B5802DD257DF6B0F932096B1
:100C1000F31D10B400E0A2819E8795AFA45E440E40
:100C2000F5B955F448735FB67D5D574DA7387350DD
:100C300006C6B9EE9BECD26D566DD8283FF0F04D4C
:100C40008F62D0D6F6E52320C6B4C30F62DE7E3BAA
:100C50001C0C2F4A9CF3AA327F15F2098EE5436ED5
:100C6000B39F937F4153059103C9B8C1DF1B63CE86
:100C7000C4E70C72465F3C6043B3C6F1B6FD81DB4E
:100C80004C7AA5B36E67DFEE327E90687118292129
:100C9000C9B07FA5708C47916B3C283B916272D99B
:100CA00090328F771A68300E057C9C30199B430F69
:100CB0004B3B14AC83F91D2B16B40393603E9D424D
:100CC0004D3BB18B98E6205EC453B23E2CE27806D1
:100CD000DF93B737EA9B6BC83F8A1F2379C4D9E9F2
:100CE000BE5A4CBA65AAF6E6A239B88A05F7DA29DF
:100CF000F80CEC53002E42B7C8B5F79408A87CBC9A
:100D0000806E32A0A3AA32BC87C0624049CB707803
:100D10006C988376DDA0B5336D534E4A8E8D1BB330
:100D2000787809DDB921BD294AD0899115DF556848
:100D3000A8181ACE997B6B81EA6C266E6A696932B3
:100D4000A77AE5090B20D603F9F136189E3C5A081C
:100D50001CF782319B784F043E6FDB0A06B48D7915
:100D600003F39E1C66D3619C4EAC3187B99AD72C95
:100D7000C66C314CCC1EA81B9DD9B8A7080AC279F5
:100D80002C8BFDFE88F518FB73B491C35AAD4F53FD
:100D90007A7BC4470FF03920E5BFF8CC70621A7235
:100DA000951D8B8F5399ED4E187F24E4CC8C08D47D
:100DB0005FC5536EEEDCCB3A50E90BF3D3FECAA30A
:100DC000EA7C181DF6C6067E0F80267116EDC5DC7E
:100DD000AEB8475DADE79CC8569A0FD3C721FF3820
:100DE00077909F05980EA865DBEACD96E643E770FD
:100DF00031C6BDF9F303B4F14FE3D3C569F03E88C2
:100E0000A3F79B4085EA6121A3F7E1380CC6C12412
:100E10004882300CA3F07D2175D9421EACDAD1DBBB
:100E2000FF00230840FA83090000040207040000C1
:100E30000400000202040404040704000004040780
:100E4000040002040404040107040002040000007A
:100E500000000000060002025540032A0E5412034F
:100E60002D0E531805300E520A02350E5140023E27
:100E70000E504003370E4F40023E0E4E14043A0E01
:100E80004D40023E0E4C1003400E4B0C03430E4AE5
:100E90000D02460E490B014D0E484001480E471207
:100EA00004490E460B014D0E4510024E0E4415032B
:100EB000500E004002530E430E02550E42090157D8
:100EC0000E410600000020002300260029002C000F
:100ED0002F003200000100000301060109010F4745
:100EE00000440045008001354800440045002001D1
:100EF0000D88008000810080000E8A008000810043
:100F000020000F8C008000810008000CB300B000AE
:100F1000B10080033EB400B000B10020032398006C
:100F2000900091008000249A0090009100200025FC
:100F30009C009000910008003BA800A000A1008048
:100F4000003CAA00A000A10020003DAC00A000A130
:100F50000008005B28012001210180005C2A01209B
:100F600001210120005D2C01200121010800282918
:100F70002A2B2C2D2E2F5051525354555657112495
:100F80001FBECFEFD1E2DEBFCDBF00E00CBF14BE6D
:100F90000FB6F894A89580916000886180936000F6
:100FA000109260000FBE12E0A0E0B2E0EEE8FFE5B4
:100FB00000E00BBF02C007900D92A432B107D9F731
:100FC00023E0A4E2B2E001C01D92A939B207E1F723
:100FD0000E944E250C94C52F0C940000CF93DF93F4
:100FE000CDB7DEB765970FB6F894DEBF0FBECDBFA5
:100FF0000E943B256B017C0180917502882309F4D6
:10100000AAC30E943B25C61AD70AE80AF90AF8942F
:1010100080917502882351F08FEF80937502789448
:101020000000F894809175028111F9CF78940E94A4
:101030003B25A7019601260F371F481F591F288BF4
:10104000398B4A8B5B8B81E08093750280914802DB
:10105000882319F1109248028FEF89838E010F5F68
:101060001F4F6EEA76E1C8010E9478160097A9F03A
:10107000DC0157962C9122FFF4CFAC01495E5F4F03
:10108000BC01685F7F4F89810E94B1236EEA76E1DF
:10109000C8010E947816009759F780914D02882365
:1010A00011F110924D028FEF89838E010F5F1F4F58
:1010B00063EE72E2C8010E947816FC01892B99F058
:1010C000958D868D9813F4CFF894858D968D89171C
:1010D00009F494C3789463EE72E2C8010E94781612
:1010E000FC01892B69F780913102882309F454C0EF
:1010F000109231028FEF8B873FE0B32E6DE170E1EC
:10110000CE010B960E9478161C01892B09F444C06D
:10111000D10157968C91579780FFF0CFF894F10149
:10112000448055806680778087898E7F878B78940E
:1011300056968C91813009F4BAC208F492C282307A
:1011400009F44FC28330D1F6AB8419861A869E010A
:10115000275F3F4F42E061E0F101848995890E9459
:10116000860E89849A84982489249824740100E046
:1011700010E0B101605F7F4FC12CA3019201C1015A
:101180000C960E94461082FEB9CF809150028111C8
:10119000B5CF8EE10E94492E80915202882301F141
:1011A000109252028FEF89838E010F5F1F4F68E10B
:1011B0007AE2C8010E947816009791F0DC015896F7
:1011C0002C912F3FA1F7F894FC0126852111A3C291
:1011D000789468E17AE2C8010E947816009771F766
:1011E00080914C02882309F43FC010924C028FEF8B
:1011F00089838E010F5F1F4F63EA72E1C8010E946D
:101200007816009789F1DC011E962C911E9723FF1A
:10121000F3CFF894FC012685277F268778949C01DC
:10122000265E3F4F3F932F9350968C9186958695DF
:1012300086951F928F9389811F928F93ECE6FEE033
:10124000FF93EF930E949C264DB75EB7485F5F4FB8
:101250000FB6F8945EBF0FBE4DBF63EA72E1C801DE
:101260000E947816009779F680914902882309F444
:1012700069C0109249028FEF8D8312E0412E0DE27A
:10128000502E88E0682E68EB7AE1CE0105960E9428
:1012900078168C01892B09F455C0D80152968C918F
:1012A00082FFF1CF80FF49C0BD80C8010E94D32BCF
:1012B000F801428A59826A820E943B25A62E972E07
:1012C000882E792E9E012F5F3F4F42E060E0D801CB
:1012D0001C968D919C911D970E94860EF8940E94F9
:1012E0003B256B017C01F80180859185A285B38542
:1012F0008C0D9D1DAE1DBF1D84839583A683B78372
:10130000C8010E94092C7894FF92EF92DF92CF924D
:101310007F928F929F92AF921F92BF922DE53EE0F7
:101320003F932F930E949C268DB79EB70C960FB6C5
:10133000F8949EBF0FBE8DBFA6CF6D81C8010E94DD
:10134000D21BA1CFA89580917402882329F080E454
:10135000809360001092740210913603112309F4F7
:101360006DC00091240200FD12C0153008F466C063
:10137000D0907602FD2C8BEF8D0D8C3308F412C2C9
:10138000EEE7FE1609F45CC2016000932402412FCF
:1013900050E06EE770E086E792E00E94962F00979B
:1013A00039F00E7F009324028657924011E0180F07
:1013B00001FD0CC0902F9260909324028EE994E07E
:1013C0009F938F930E949C260F900F90D12ECC2438
:1013D000CA9480E00D2D10E018C090E04E2D50E032
:1013E000481B590BB801680F791F6A587D4F8A58FE
:1013F0009D4F0E94AC2F109275028E2D9FB7F894CE
:1014000020913603F21661F09FBFF0903603EF2C67
:10141000ED1819F79FB7F89420913603F212F4CF24
:10142000E09236039FBFF1E0CF1208C08EE994E04E
:101430009F938F930E949C260F900F900E943B25B4
:101440006B017C01288939894A895B89621B730B8E
:10145000840B950B80902D0290902E02A0902F026D
:10146000B09030023FEF831A930AA30AB30A809226
:101470002D0290922E02A0922F02B0923002409044
:10148000290250902A0260902B0270902C02460E86
:10149000571E681E791E4092290250922A026092BD
:1014A0002B0270922C026115710541E084079105B1
:1014B00008F056C19B01AC010E94152FDC01CB0145
:1014C00081509F4FAF4FBF4F892F9A2FAB2FBB2714
:1014D00040912502509126026091270270912802C6
:1014E000840F951FA61FB71F84179507A607B70778
:1014F00018F48FEF9FEFDC01809325029093260272
:10150000A0932702B093280240917002509171027B
:1015100060917202709173025C546B437B4F2F2D6C
:10152000C416D506E606270B27FD66CDBF93AF93FD
:101530009F938F937F926F925F924F92BF92AF92E1
:101540009F928F928DEA9EE09F938F930E949C269C
:101550008DB79EB70E960FB6F8949EBF0FBE8DBF87
:101560008091700290917102A0917202B091730209
:10157000C816D906EA06FB0698F480916C02909191
:101580006D02A0916E02B0916F020196A11DB11D76
:1015900080936C0290936D02A0936E02B0936F02E1
:1015A000C0927002D0927102E0927202F0927302C5
:1015B0001092250210922602109227021092280201
:1015C0001092290210922A0210922B0210922C02E1
:1015D00010922D0210922E0210922F0210923002C1
:1015E0000BCDAB8481E089831A821B821C829E0111
:1015F0002F5F3F4F43E061E0848995890E94860E0A
:1016000069817A818B819C810E94252F272F382F19
:10161000492F55272C873D874E875F8737E03983D1
:101620001A829E012F5F3F4F42E061E0D101549644
:101630008D919C9155970E94860EEC84FD840E85B9
:101640001F8500271127B101605F7F4FCA80A3016A
:101650009201C1010C960E944610BC85B0FF4ECD90
:1016600094CDAB841D821E821F8218869E012B5F43
:101670003F4F44E061E0F101848995890E94860E24
:101680006D817E818F8198850E94252FD62EF72E21
:10169000B101605F7F4FC12CED2C8C01A301920141
:1016A000C1010C960E944610D2FE28CD6ECDAB84AF
:1016B000FCE0F9831A821B821C829E012F5F3F4F40
:1016C00044E061E0D10154968D919C9155970E9420
:1016D000860E69817A818B819C810E94252F6B0106
:1016E0007C01B9821A829E012F5F3F4F42E061E088
:1016F000F101848995890E94860E87017601112760
:10170000B101605F7F4FCA80A3019201C1010C96B5
:101710000E944610F3CC318D308F7894AC01415F3C
:101720005F4F5F934F931F922F93FC0187891F9206
:101730008F9389811F928F9321E73EE03F932F93F0
:101740000E949C268DB79EB70A960FB6F8949EBF4E
:101750000FBE8DBF2CCDC88AD98AEA8AFB8A73CC8A
:101760006115710550E18507910508F0C2CE8B0126
:101770009C0101501F4F2F4F3F4F5527432F322FB2
:10178000212F0E94152FDC01CB01409125025091A1
:1017900026026091270270912802840F951FA61FD0
:1017A000B71FA2CEE09077028E2D807F803109F0A6
:1017B000E7CD1D1508F442CE8D2D90E0FC01EB58CD
:1017C000FD4F20812E3709F0DBCDDC01AD58BD4F38
:1017D0001D01FC01EC58FD4F90818C91292F30E0C8
:1017E0005901B82A6DEF6D0D86E792E00E945125F0
:1017F000A816B90639F1F0907602C2CD54896589F0
:1018000090892189328943898F5F858F78946F937E
:101810005F934F933F932F939F9389811F928F9351
:10182000E5E8FEE0FF93EF930E949C264DB75EB77C
:10183000465F5F4F0FB6F8945EBF0FBE4DBF38CC0A
:1018400011E0C4CD802F8D7F8093240280911B02F4
:10185000E812FEC081E08E0D8F70806180931B02C4
:10186000B8E72B16B2E03B0609F008F4BAC0E8E787
:10187000F2E0ADB6BEB68F010F5F1F4F208122236D
:1018800009F4E3C0EDE9F4E08491281708F0DDC025
:1018900030E0220F331F220F331F220F331FF901B5
:1018A000EA56FD4FE4914DB75EB784E0E89F4019DA
:1018B000510911240FB6F8945EBF0FBE4DBF8DB70E
:1018C0009EB70196F901E856FD4F4491F901E7569C
:1018D000FD4F65917491FB01640F711DAC01BD86D4
:1018E000AC869D8B8C8B6E177F0709F47FC020160A
:1018F000310638F1A491A53038F1A73011F528014F
:10190000BFEF4B1A5B0AD8016C908201060D111DC6
:1019100020163106B0F0862C912CA12CB12CDA01C6
:101920008D929D92AD92BC921397612C712C14965E
:101930004D925D926D927C921797485F5F4F319602
:10194000D2CF87E00E94492E7A0194E0E90EF11C83
:101950005801AFEFAA1ABA0AD8011C91912F9F77AC
:10196000492E512C612C712C012F0076003691F1FB
:1019700017FF3AC085010F5F1F4FD80111978C9157
:10198000440C551C661C771C440C551C661C771CAB
:10199000440C551C661C771C440C551C661C771C9B
:1019A000440C551C661C771C440C551C661C771C8B
:1019B000440C551C661C771C982F9F77492A87FD7D
:1019C000DACFDA014D925D926D927C921397A70166
:1019D000319689CFB0EE4B2A55245A94652C762C3B
:1019E000C7CFCC24C394F5CC8501EBCFAC84BD84A8
:1019F0008C899D8940915002442331F0F901E956C8
:101A0000FD4FE491E0FF11C025563D4FF9012591AE
:101A10003491F90119950FB6F894BEBE0FBEADBE54
:101A200002151305F0F6F80124CF809153021F929E
:101A30008F93ECEBFEE0FF93EF930E949C260FB692
:101A4000F894BEBE0FBEADBEEBCF85E00E94492E1E
:101A50001D2DB4CCFC011092750281E080933102FF
:101A600087898160878B44815581668177818085F4
:101A70009185A285B385840F951FA61FB71F848308
:101A80009583A683B78381E0089546E050E067E739
:101A90007DE0FC0180810C94101DCF92DF92FF92BB
:101AA0000F931F93CF93DF93EC0167E77DE08C8169
:101AB0000E943F1D6C01F8840F2D10E0A8014D5FBE
:101AC0005F4F6DE47DE088810E94101DFC01D18292
:101AD000C082F2826C857D85A8010396DF91CF914B
:101AE0001F910F91FF90DF90CF900C94A32F0F9335
:101AF0001F93CF93DF938C0146E050E067E77DE0D2
:101B0000FC0180810E94101DEC0161E0F8018481DC
:101B10000E9402246A837B838C838D8181608D8304
:101B2000DF91CF911F910F9108950F931F93CF9342
:101B3000DF938C0163EE72E2FC0180810E943F1D05
:101B4000EC010E94D32B909100028A8D981303C060
:101B50008FEF80930002F80184819581A681B7817F
:101B6000888B998BAA8BBB8B8C839D83AE83BF8321
:101B700080859185A285B3858C879D87AE87BF8739
:101B800084858E8F91E0980F9D8F4089518962895D
:101B90007389488759876A877B87248935893F8B72
:101BA0002E8B208D318D398F288F948D9C8F8111B4
:101BB00005C0DF91CF911F910F910895CE01DF9164
:101BC000CF911F910F910C94092C8DE10E94492E09
:101BD0008F929F92AF92BF92FF920F931F93CF93DA
:101BE000DF93EC0167E77DE088810E943F1D8C0157
:101BF000F88483E08F1508F484C0F801858186702D
:101C000009F07FC08C849D84AE84BF848C819D81CB
:101C1000AE81BF81892B8A2B8B2B09F074C0E8EC35
:101C2000FEE0A591B49111968C9180FD04C060E016
:101C300088E00E94022460E089E00E94022460E0C3
:101C40008AE00E94022460E08BE00E940D1A80E589
:101C50008CBD1DBC8114F2E19F06FAE7AF06B1040A
:101C600008F041C0811489E098068DE3A806B1040C
:101C700018F5E0E88E16E4E89E06EEE1AE06B10443
:101C8000C0F5F0E48F16F2E49F06FFE0AF06B10462
:101C900068F580E2881681EA980687E0A806B10414
:101CA00058F590E0E0E98E16E0ED9E06E3E0AE0622
:101CB000B10428F583E002C090E080E0CF2DCC0F86
:101CC000CC0FC065C82BF801C083918385818460E7
:101CD0008583DF91CF911F910F91FF90BF90AF90BF
:101CE0009F908F90089591E080E0E8CF90E081E0B0
:101CF000E5CF91E081E0E2CF91E082E0DFCF82E0CA
:101D0000DDCF0E94E50D8EE20E94492E8F929F92B8
:101D1000AF92BF92CF92DF92EF92FF920F931F93F9
:101D2000CF93DF934C01E62E142F6901DC01159649
:101D30008C911597982F967009F462C081FD6DC043
:101D4000F401908181819CBD8DBDD40115969C913B
:101D5000159790FD71C091FF7AC0D401CD91DC91AF
:101D6000AA24AA94A10E1123A9F1B12CBFEFAB1A9A
:101D7000BB0AAC0CBD1CF601F08008E010E08985C0
:101D800080FF7AC0EE81FF81888580834F2D407867
:101D90006B817C818D810E94461AFF0CEE81FF8150
:101DA00088858083110FE881F98190818A81892358
:101DB00091E009F490E0192B015009F7EE2011F0A1
:101DC000D6011C93BFEFCB1ADB0ACA14DB0499F6C9
:101DD000F401958190FF14C0D40112966D917D910C
:101DE0008C9141E0DF91CF911F910F91FF90EF9087
:101DF000DF90CF90BF90AF909F908F900C94461A39
:101E0000DF91CF911F910F91FF90EF90DF90CF90D6
:101E1000BF90AF909F908F900895ED91FC91418578
:101E200042706681778180850E94461AD40115969A
:101E30009C91159790FF8FCF12966D917D918C910B
:101E400040E00E94461AF401958191FD86CFEE2074
:101E500071F18FEF810F112309F4BCCFF60190814E
:101E60009EBD0DB407FEFDCF9EB591938150B8F78E
:101E7000D40115969C91AECF4F2D40786B817C811B
:101E80008D810E94461AFF0CEE81FF818885808338
:101E9000110FE881F98190818A81892391E009F409
:101EA00090E0192BEE81FF818885808385CFF60134
:101EB0009601210F311D2E173F0709F489CF81911B
:101EC0008EBD0DB407FEFDCFF6CFCF93DF93EC01AF
:101ED00067E77DE088810E943F1D288539854C8118
:101EE00060E0DF91CF910C94860EFF920F931F93C9
:101EF000CF93DF93EC01188167E77DE0812F0E948B
:101F00003F1D0C81F884C9852F2D3C2F402F61E0A7
:101F10000E94860ECF93FF921F920F931F921F93E2
:101F200080E89EE09F938F930E949C268DB79EB77A
:101F300008960FB6F8949EBF0FBE8DBFDF91CF916C
:101F40001F910F91FF900895EF92FF921F93CF93EF
:101F5000DF93EC018C85182F1F7741E050E064EA95
:101F60007FE088810E94101D7C018C819D81AE8163
:101F7000BF81892B8A2B8B2BF1F48091BC0082FDD1
:101F800010C061E089E10E94022461E088E10E94C2
:101F900002241092B90088E48093B80084E0809312
:101FA000BC00812F880FF7018083DF91CF911F91B3
:101FB000FF90EF90089581E30E94492E0F931F93A5
:101FC000CF93DF938C016DE170E1FC0180810E9471
:101FD0003F1DEC010E94D32BF80184819581A681DD
:101FE000B7818C839D83AE83BF8380859185A285D5
:101FF000B38588879987AA87BB87892B8A2B8B2BE8
:1020000029F4DF91CF911F910F91089584859585D3
:10201000A685B7858C879D87AE87BF878089918984
:10202000A289B389888B998BAA8BBB8BCE01DF9158
:10203000CF911F910F910C94092CFF920F931F9336
:10204000CF93DF93EC01F88483E08F15E0F048E153
:1020500050E06DE170E188810E94101D8C018AE2E0
:102060009DE0F8019383828367E77DE08C810E9485
:102070003F1DF801958B848BF68ADF91CF911F91DC
:102080000F91FF90089580E20E94492E4F925F9237
:102090006F927F928F929F92AF92CF92EF92FF9228
:1020A0000F931F93CF93DF93EC014B01270138016E
:1020B0001F92CF927F926F925F92EF925F934F93B6
:1020C0003F932F931F92AF928BE79EE09F938F9346
:1020D0000E949C268DB79EB70E960FB6F8949EBFB1
:1020E0000FBE8DBF88819981AA81BB81E816F90650
:1020F0000A071B0750F0F40180819181A281B3810E
:102100008E159F05A007B10720F480915002882307
:1021100079F0DF91CF911F910F91FF90EF90CF90C9
:10212000AF909F908F907F906F905F904F900895A9
:102130008FE10E94492E0F931F93FC01A489B5895A
:1021400086898C9393A181E0892783A3448155815B
:102150006681778180FF12C00085118522853385D5
:10216000400F511F621F731F82FD12C044835583AD
:102170006683778381E01F910F910895048515850B
:1021800026853785400F511F621F731F82FFEECFD8
:102190000089118922893389872F401751076207E7
:1021A000830B87FDE3CF8FEF90E193838283B901A7
:1021B000A801448355836683778381E01F910F9143
:1021C00008950895FC018081A481B58140855185E1
:1021D000628573859FB7F894813061F0823019F081
:1021E0004C939FBF08954D935D936D937C9313978C
:1021F0009FBF089511965C934E939FBF08958F9251
:102200009F92AF92BF92CF92DF92EF92FF921F9375
:10221000CF93DF93EC01EF8CF8A0E114F10409F403
:10222000F0C0F7018081918198A38F8F868097807D
:10223000A084B18411E081149104A104B10409F4D3
:10224000A1C06C897D898E89412F0E94461A809198
:102250004A0290914B02F70191838083F0924B02E6
:10226000E0924A0281149104A104B104E9F08B8D3B
:102270009C8DAD8DBE8D88169906AA06BB06A0F46E
:102280004F89588D698D7A8D41155105610571050C
:1022900009F45BC08C819D81AE81BF81480F591FBD
:1022A0006A1F7B1F166022C08BA131E0811491044C
:1022B000A104B10409F068C084FB992790F921E0DA
:1022C0009227391709F443C04F89588D698D7A8D4B
:1022D0004115510561057105D1F18C819D81AE815A
:1022E000BF81480F591F6A1F7B1F1460EF8DF8A133
:1022F000309709F077C02BA1488B598B6A8B7B8B69
:102300002071212B2BA311FF5FC0880D991DAA1DE1
:10231000BB1D12FD52C02BE930E13B832A838C8325
:102320009D83AE83BF8388869986AA86BB868B8D64
:102330009C8DAD8DBE8D88199909AA09BB098C8722
:102340009D87AE87BF8781E011C012608BA1EF8DA2
:10235000F8A13097D9F4188A198A1A8A1B8A8071D1
:10236000812B8BA3812F827011FD34C0DF91CF911F
:102370001F91FF90EF90DF90CF90BF90AF909F9014
:102380008F90089510E05DCF30E096CF4281538169
:1023900064817581488B598B6A8B7B8B8071912FFF
:1023A0009460892B8BA311FF0FC08C819D81AE811E
:1023B000BF81880D991DAA1DBB1D2B2F8417950762
:1023C000A607270B27FDA7CF4C835D836E837F83F2
:1023D00081E0CCCF40E050E0BA018C819D81AE819C
:1023E000BF8193CFC280D380E480F580872F4C15C6
:1023F0005D056E058F0987FD07C08BA1B701A6019A
:10240000C9CF86E10E94492E84E10E94492EFC0139
:1024100085818F9384818F9380811F928F9389E927
:102420009EE09F938F930E949C260F900F900F9099
:102430000F900F900F900895DC012C911496ED9160
:10244000FC9115973FB7F8942130E9F02230B1F0B4
:10245000808190E0A0E0B0E03FBFBF93AF939F9337
:102460008F9384E99EE09F938F930E949C260F9008
:102470000F900F900F900F900F9008958081918191
:10248000A281B381E9CF80819181A0E0B0E0E4CF67
:1024900082E392E00C94D32BCF93DF93EC0182E3A1
:1024A00092E00E94D32BE2E3F2E085E59AE1938388
:1024B000828388819981AA81BB8184839583A68345
:1024C000B783CF01DF91CF910C94092C6F927F924B
:1024D0008F92CF92DF92EF92FF92CF93DF93EC0136
:1024E00060E08C810E9402243B01882EC884D9843C
:1024F000EA84FB84D7FC24C0A601415F5F4F66E6F7
:1025000072E188810E94101DFC01608271828282CA
:10251000D686C5868C859D85948383838889998991
:10252000AA89BB8981879287A387B487DF91CF91DE
:10253000FF90EF90DF90CF908F907F906F900895F5
:1025400089E20E94492E7F928F929F92AF92BF9212
:10255000CF92DF92EF92FF920F931F93CF93DF936F
:10256000EC0144E250E063EA72E188810E94101DB0
:102570008C0178848C809D80AE80BF80CC84DD848B
:10258000EE84FF8461E0711001C060E0882D0E943C
:102590000D1AF80163877487858761E08C2D0E948E
:1025A0000224F80160877187828788899989AA89BE
:1025B000BB89828B938BA48BB58B711018C091E073
:1025C0008C149D04AE04BF04C1F080E0892BF80197
:1025D0008687DF91CF911F910F91FF90EF90DF9051
:1025E000CF90BF90AF909F908F907F90089591E192
:1025F0008C149D04AE04BF0441F780E2E7CFCF9274
:10260000DF92EF92FF920F931F93CF93DF93EC0132
:10261000E885F9858A8580830E943B253E8521E0F7
:1026200023272E872F852F5F2F87213009F45CC049
:102630002530E0F40C811D812E813F814A895B8920
:102640006C897D89DB01CA01800F911FA21FB31F16
:102650008C839D83AE83BF8381E0DF91CF911F91F7
:102660000F91FF90EF90DF90CF900895CC80DD80A8
:10267000EE80FF80AB01BC014C195D096E097F093A
:102680008E899F89A88DB98D481B590B6A0B7B0BCE
:10269000DB01CA010296A11DB11DB7FD34C0B5957D
:1026A000A79597958795B595A795979587950A8945
:1026B0001B892C893D89800F911FA21FB31F8E8B10
:1026C0009F8BA88FB98F2FEA30E23B832A834C0D72
:1026D0005D1D6E1D7F1D840F951FA61FB71F8C8368
:1026E0009D83AE83BF83B8CF0C811D812E813F8136
:1026F000AB01BC01401B510B620B730B4E8B5F8B0C
:10270000688F798F9BCFDB01CA010596A11DB11D92
:10271000C6CFEF92FF920F931F93CF93DF937C016D
:1027200063EA72E1FC0180810E943F1DEC011E857D
:1027300011FF07C0DF91CF911F910F91FF90EF9094
:102740000895F701048160857185F4840B3008F0E9
:1027500045C0FAE0FF1508F441C0402F50E04A960A
:102760000E94A32F1F86117312601E87802F880F6F
:10277000880F880F898BFF0CFF0CFF0CF88A002351
:1027800049F08A8D8F738A3229F48FEF92E19B830F
:102790008A830CC08A899B89AC89BD898E8B9F8B6B
:1027A000A88FB98F8FEA90E29B838A83F8940E9466
:1027B0003B25DC01CB018058934FAF4FBF4F8C833B
:1027C0009D83AE83BF83CE010E94092C7894DF9154
:1027D000CF911F910F91FF90EF90089587E20E9493
:1027E000492EDF92EF92FF920F931F93CF93DF93C7
:1027F000EC01D88883E08D15B0F167E77DE0888132
:102800000E943F1D7C018AE090E00E9479268C01A5
:1028100061E08C810E940D1AF801608371838283CC
:1028200060E088850E940224F801638374838583B5
:1028300060E08C850E940224F8016683778380879C
:10284000D186F7018581982F967081F4F701118365
:10285000008382608583DF91CF911F910F91FF905C
:10286000EF90DF9008958DE10E94492E0E94E50DC2
:10287000CF93DF93EC016AE574E188810E943F1DEC
:10288000FC018C819D81AE81BF81892B8A2B8B2B92
:1028900051F420E0F89492A19D7F922B92A378941A
:1028A000DF91CF91089522E0F5CFFC016481808112
:1028B0000C9402240F931F93CF93DF938C0143E278
:1028C00050E06AE574E1FC0180810E94101DEC017A
:1028D000F80180899189A289B389892B8A2B8B2B56
:1028E00061F560E06AA3F80184810E940224688B8C
:1028F000798B8A8B60E0F80180850E9402246B8BC3
:102900007C8B8D8BF80184859585A685B7858E8F08
:102910009F8FA8A3B9A380E090E0A0E0B0EC8E8BDD
:102920009F8BA88FB98F6BE070E0CE014A96DF9144
:10293000CF911F910F910C94A11D64E0D3CFCF9341
:10294000DF93EC016AE574E188810E943F1DFC0180
:102950004C815D816E817F81F89486859785892B76
:1029600061F4448355836683778392A19F7A906153
:1029700092A37894DF91CF91089587E10E94492E28
:102980000F931F93CF93DF938C016AE574E1DC0111
:102990008C910E943F1DEC010E94BB1DFC01D801DF
:1029A00014964D915D916D917C911797428353835D
:1029B0006483758318968D919C9119979187808770
:1029C000892B09F47AC0D8011C968D919C911D9792
:1029D000978386831286F8948AA1282F217081FB21
:1029E000992790F9291729F091E08927928591601C
:1029F0009287982F9F7D208531852130310591F177
:102A0000892F8F7E2E853F85232BB1F596FD1AC029
:102A10008AA3118210828A8D9B8D892B09F443C071
:102A2000AC8DBD8DED93FC93FD8FEC8FCE010E949C
:102A30008217CE010E94092C7894DF91CF911F91CB
:102A40000F91089580914A0290914B029183808367
:102A5000F0934B02E0934A027894DF91CF911F915B
:102A60000F91089522852223D1F09062892F8F7EC5
:102A70002E853F85232B51F28AA3118210828A8DE5
:102A80009B8D892BA9F0AC8DBD8DED93FC93FD8FB3
:102A9000EC8F7894DF91CF911F910F91089584FF6F
:102AA000AFCF9062E3CFFD8FEC8FFB8FEA8FBECF6D
:102AB000FD8FEC8FFB8FEA8FBFCF88E10E94492EFC
:102AC0008F929F92AF92BF92FF920F931F93CF93DB
:102AD000DF938C0168E179E2FC0180810E943F1D57
:102AE000EC010E94D32B8F8D98A1892B09F058C03F
:102AF000F80104811BA1FF24F394002339F16C89B0
:102B00007D898E894F2D0E94461A21E001111CC03B
:102B100014FB882780F991E08927281741F08F89D5
:102B2000988DA98DBA8D892B8A2B8B2B89F41071E6
:102B30001F291BA3DF91CF911F910F91FF90BF9091
:102B4000AF909F908F90089520E0E2CFF12CD7CFE7
:102B50000E943B258F88988CA98CBA8CDC01CB0114
:102B6000880D991DAA1DBB1D888B998BAA8BBB8BC9
:102B70008C839D83AE83BF838FEF90E19B838A8399
:102B8000107114601F291BA3CE01DF91CF911F91FB
:102B90000F91FF90BF90AF909F908F900C94092C55
:102BA00083E10E94492E0F931F93CF93DF938C01F3
:102BB0008091420290914302892B09F04BC06091B1
:102BC000410270E0623071052CF482E08093410292
:102BD00062E070E0E0913D02F0913E024DB75EB7D9
:102BE00041505F4F44275A959F01C0E0D0E0C90192
:102BF000860F971F4817590730F121969C01C11580
:102C0000A4E0DA07A1F78E1B9F0B0E947926D093D0
:102C10004302C09342029093400280933F020E947D
:102C2000571DF80180819181A281B3818093440274
:102C300090934502A0934602B0934702DF91CF9153
:102C40001F910F910895209711F0C901DCCF80E109
:102C50000E94492E8DE00E94492ECF9320913B0285
:102C600030913C02232B91F4FC01C0818C2F90E029
:102C7000880F991F880F991F0E94792690933C0214
:102C800080933B02C0933A02CF9108958AE00E945C
:102C9000492E809142029091430221E030915002EE
:102CA000311101C020E01F922F939F938F932091A9
:102CB00047022F93209146022F93209145022F9394
:102CC000209144022F9321E0892B09F420E01F92E8
:102CD0002F938EE99EE09F938F930E949C268DB741
:102CE0009EB70C960FB6F8949EBF0FBE8DBF089589
:102CF000CF93DF93EC01988140913A02A0913B027F
:102D0000B0913C020BC0FD0184E0989FE00DF11DE5
:102D10001124208131812617370741F09F5F9417D6
:102D200090F380E090E0DF91CF91089598838281C5
:102D30009381DF91CF910895CF93FC01C0816EEA1A
:102D400076E18C2F0E943F1DAC01495E5F4FBC01B4
:102D5000685F7F4F8C2FCF910C94B123FF920F931C
:102D60001F93CF93DF93EC01FC844F2D50E0440F71
:102D7000551F455E5F4F6EEA76E188810E94101D07
:102D80008C0168858C810E940D1AF801608771871B
:102D90008287F08E81E0818FDF91CF911F910F911B
:102DA000FF9008950F931F93CF93DF938C016EEAEA
:102DB00076E1FC0180810E943F1DEC010E94D32B33
:102DC000F80184819581A681B7818C839D83AE8330
:102DD000BF8380859185A285B3858F87988BA98BCA
:102DE000BA8B8485898F882341F1F8014089518904
:102DF000628973894B875C876D877E8724ED38E114
:102E00003B832A838A8F84899589A689B789892BF0
:102E10008A2B8B2B49F482E08F8BCE01DF91CF91EF
:102E20001F910F910C94092C83E08F8BCE01DF91C1
:102E3000CF911F910F910C94092C1F8ADF91CF9194
:102E40001F910F910895EF92FF920F931F93CF93CD
:102E50008C016EEA76E1FC0180810E943F1D7C01BD
:102E6000F801C481FC01808DC817A0F46AE574E103
:102E7000F80180850E943F1DEC2FF0E0EE0FFF1F50
:102E8000EE0DFF1D948F838FCF911F910F91FF90B7
:102E9000EF9008958BE10E94492ECF93FC01C081F1
:102EA0006AE574E18C2F0E943F1DFC01F89486892D
:102EB0009789A08DB18D26853785821B930BA1093B
:102EC000B109B7FF07C0B095A095909581959F4F28
:102ED000AF4FBF4F7894B054BF93AF939F938F93EE
:102EE0001F92CF938FE89EE09F938F930E949C2622
:102EF0008DB79EB708960FB6F8949EBF0FBE8DBFD4
:102F0000CF910895CF92DF92EF92FF920F931F938C
:102F1000CF93DF93FC01A28DB38D109731F54485DB
:102F20005585052E000C660B770B80859185A28553
:102F3000B385841B950BA60BB70B468D578D60A1EF
:102F400071A184179507A607B70718F482A185FF1A
:102F500077C01786168680E0DF91CF911F910F9181
:102F6000FF90EF90DF90CF9008958D919C911197F5
:102F7000938F828F12964D915D916D917C911597F3
:102F80000481158126813781040F151F261F371FE5
:102F9000048315832683378316968D919C9117970A
:102FA000958784878C01092E000C220B330B400F70
:102FB000511F621F731F4087518762877387892B58
:102FC00049F582A1877F82A318964D915C9119974C
:102FD000578746871A968C911A9780FD1EC00689DE
:102FE0001789208D318D68017901C40ED51EE11C31
:102FF000F11CC68AD78AE08EF18E80914A029091A8
:103000004B0211969C938E93B0934B02A0934A026D
:1030100081E0A2CF82A18860D6CF60E070E006890F
:103020001789208D318D401B510B620B730B468B22
:10303000578B608F718FC389D48985898883DDCF51
:103040008AE10E94492ECF93DF93EC010E94D32B9B
:103050001C821D821E821F828E899F89A88DB98D38
:103060002E853F85821B930BA109B109B7FD39C09D
:10307000B095A095909581959F4FAF4FBF4F8E8B88
:103080009F8BA88FB98F1F861E868AA1847080644B
:103090008AA36B897C898D8940E00E94461A4AA1E7
:1030A0004470688979898A890E94461AEA8DFB8D65
:1030B0003097A1F030914A0220914B0201C0FC01EF
:1030C0008081918130832183F0934B02E0934A0207
:1030D0003E2F2F2F009799F71B8E1A8EDF91CF91DD
:1030E0000895B095A095909581959F4FAF4FBF4F94
:1030F000BFCF0F931F93CF93FC01A085B1859C9107
:1031000082858923E9F0878980958170E1F4828D39
:10311000815061F1828F44815581668177818785F5
:103120009089A189B289840F951FA61FB71F848338
:103130009583A683B78381E0CF911F910F91089566
:103140008789817021F384ED98E193838283838959
:103150009489A589B68984839583A683B783818D55
:10316000828F81E0CF911F910F9108958F0184E0AC
:10317000878BC08DC15070F0EC2FF0E0EE0FFF1F79
:10318000E00FF11F838D948D009711F00E9423189A
:10319000C15090F71092750281E08093480280E060
:1031A000CF911F910F9108950F931F93FC01A0855C
:1031B000B1859C9104811581268137814385548591
:1031C00065857685400F511F621F731F8285892395
:1031D00061F087898095817059F0448355836683B7
:1031E000778381E01F910F91089587898170A9F7F6
:1031F000438B548B658B768B89E798E1938382832D
:10320000CF011F910F910C947918CF92DF92EF921A
:10321000FF926B017C0109C00E943B25292F6C1590
:103220007D058E052F0927FF09C08091BC0087FF0F
:10323000F3CFFF90EF90DF90CF90089580E30E944E
:10324000492E24EA2093BC000E9405198091B90000
:1032500090E0A0E0B0E080319105A105B10521F03A
:103260000897A105B10509F408958FE20E94492E3F
:103270007F928F929F92AF92BF92CF92DF92EF9206
:10328000FF920F931F93CF93DF93782EC62F942E28
:10329000B52E822E0E943B256B017C0120E8C20ED8
:1032A00028E3D21E21E0E21EF11CC701B6010E94F4
:1032B00021197092BB0084E88093BC00C701B6015D
:1032C0000E940519AA24AA94AC0ECC23B1F0C92DF2
:1032D000DB2DB12C8FEFA81AB80AAC0EBD1E94E8F6
:1032E000992E89918093BB009092BC00C701B601D2
:1032F0000E940519AC16BD06A1F7C701B6010E94D0
:103300002119872D81608093BB0084E88093BC00E5
:10331000C701B6010E940519DFEFD80D882009F119
:103320005801CD2F84EC982ECC2369F09092BC00EC
:10333000C701B6010E9405198091BB00F501819378
:103340005F01C15099F7F801ED0FF11DEF0184E81D
:103350008093BC00C701B6010E9405198091BB0093
:10336000888384E98093BC00DF91CF911F910F91F6
:10337000FF90EF90DF90CF90BF90AF909F908F9095
:103380007F900895BF92CF92DF92EF92FF920F93BA
:103390001F93CF93DF93D82FC62FB42E152F0E94E3
:1033A0003B256B017C0120E8C20E28E3D21E21E000
:1033B000E21EF11CC701B6010E942119D093BB0087
:1033C00084E88093BC00C701B6010E9405190FEF85
:1033D0000C0FCC23A9F0CB2DD12F10E00F5F1F4F86
:1033E0000C0F1D1F84E8B82E89918093BB00B0920A
:1033F000BC00C701B6010E940519C017D107A1F78B
:1034000084E98093BC00DF91CF911F910F91FF90D1
:10341000EF90DF90CF90BF9008958036A0F567FDC4
:1034200032C0E82FE695E695E695F0E0EE0FFF1F37
:10343000EA53F14FA591B491109729F1877021E0DB
:1034400030E0A90102C0440F551F8A95E2F7CA0176
:103450004FB7F89412963C911297662381F0382B5F
:10346000282F209512963C93129711963C91119714
:10347000232311962C9311974FBFBD010895282F38
:1034800020953223EFCF8BE20E94492EFB012FB70C
:10349000F8949281411105C08095892382832FBFC2
:1034A0000895892B82832FBF089582E10E94492EBF
:1034B00080915002882329F0823011F0109250023E
:1034C000089582E00E94492ECF92DF92EF92FF9200
:1034D000FC0140815181628173812481E6E2FEE03A
:1034E00085919591A591B491481759076A077B0773
:1034F00070F56A017B01C20ED11CE11CF11C8C1518
:103500009D05AE05BF0500F5841B90E09A012D5581
:103510003B4F3F932F939F938F937F936F935F9333
:103520004F9382EB9EE09F938F930E949C268DB7D2
:103530009EB70A960FB6F8949EBF0FBE8DBFFF9040
:10354000EF90DF90CF900895822F90E0DFCF80E062
:1035500090E0DCCF8EE00E94492EFC0192899460BD
:10356000928B1092750281E08093490280E0089569
:103570000F931F93CF93DF938C0144E450E068EBEB
:103580007AE1FC0180810E94101DEC018DEA9AE134
:103590009B838A8367E77DE0F80184810E943F1D59
:1035A0009D878C87DF91CF911F910F910895CF93C5
:1035B000DF93EC0144969F938F938B891F928F9397
:1035C0008F858F938E858F931F926F9388E59EE0F2
:1035D0009F938F930E949C261B8A8E859F850196C0
:1035E0009F878E878DB79EB70A960FB6F8949EBFB9
:1035F0000FBE8DBFDF91CF9108954F925F926F9272
:103600007F92BF92CF92DF92EF92FF920F931F9320
:10361000CF93DF93FC01B08066E672E18B2D0E94B0
:103620003F1DEC014D805E806F807884C984DA8410
:10363000EB84FC840E943B25DC01CB0184199509B5
:10364000A609B7098C159D05AE05BF0568F40E9453
:103650003B25DC01CB0184199509A609B7098C1516
:103660009D05AE05BF0598F3CD84DE846881798120
:103670008A81A0918400B09185000B811C819E01FC
:10368000215F3F4F7901C20ED31ECE14DF0409F42F
:1036900057C0F70191917F0128E013C0F894409141
:1036A000840050918500FB01808380837894FA0127
:1036B000EA1BFB0BE017F107D8F4990FDA01215050
:1036C00021F397FFEBCFF89440918400509185004F
:1036D000FB0180837894FA01EA1BFB0BE017F107EA
:1036E00038F4990FF894FB0180837894DA01E7CFDE
:1036F00040E00E94461A0E943B256D837E838F83A3
:10370000988780E01F928F931F92BF9287E69EE07A
:103710009F938F930E949C260F900F900F900F9075
:103720000F900F90DF91CF911F910F91FF90EF902D
:10373000DF90CF90BF907F906F905F904F900895F3
:103740000E943B256D837E838F83988781E0DACF4B
:103750000F931F93CF93DF93EC0166E672E18881AC
:103760000E943F1D0C811D812E813F8148856C8503
:103770007D8517FD14C050E0DA01A00FB11FEC01E8
:10378000ED85FE85EA17FB0750F0015F1F4F800FA4
:10379000911FDF91CF911F910F910C94A32F88E27D
:1037A0000E94492ECF92DF92EF92FF920F931F93C8
:1037B000CF93DF93CDB7DEB729970FB6F894DEBF6E
:1037C0000FBECDBF8C01F62E9E012F5F3F4F89E0CB
:1037D000F90111928A95E9F782EF898349E061E066
:1037E000F801848595850E94860EF801A389B0E0D2
:1037F0005496A00FB11F86E0FE01329601900D9203
:103800008A95E1F7F80183898A5F838B8B3208F010
:1038100044C089858F778F3160F0F8012089318924
:103820002F3FFFEF3F0729F02F5F3F4FF801318B0C
:10383000208B82508F31B0F1F801828981FD0FC059
:1038400029960FB6F894DEBF0FBECDBFDF91CF91A2
:103850001F910F91FF90EF90DF90CF900895C801D6
:103860000E94D32BF80182898B7F828BF8940E946F
:103870003B25F801C084D184E284F384DC01CB01D0
:103880008C0D9D1DAE1DBF1D84839583A683B783BC
:10389000C8010E94092C7894D3CF6F2DC8010E94D3
:1038A000D71AB7CF1092750281E080934902C8CF32
:1038B0005F926F927F928F929F92AF92BF92CF92C0
:1038C000DF92EF92FF920F931F93CF93DF931F929C
:1038D0001F92CDB7DEB76C01FC01E08068EB7AE1A6
:1038E0008E2D0E943F1D8C01F60180859185A28559
:1038F000B385892B8A2B8B2B99F1C8010E94D32B7E
:10390000F60184819581A681B781F801848395832E
:10391000A683B783F60180859185A285B385F801DA
:1039200080879187A287B38781E0828B118A108A72
:1039300017861686138AC8010E94092C0F900F90D3
:10394000DF91CF911F910F91FF90EF90DF90CF907B
:10395000BF90AF909F908F907F906F905F900895F1
:10396000C8010E94D32BF801128A8DE289831A8242
:103970000E943B25C62EB72EA82E992E9E012F5FA2
:103980003F4F42E060E0F801848595850E94860EF5
:103990000E943B25862E772E682E592E81E2F82E26
:1039A00099EBD92E07C06E2DC8010E94D21BFA9444
:1039B000FF2079F0D9821A829E012F5F3F4F42E0AB
:1039C00061E0F801848595850E94860E8A818F7357
:1039D00051F7F8018389882321F06E2DC8010E94D8
:1039E000D71AF80187858F9386858F9381898F9366
:1039F00080898F935F926F927F928F929F92AF9206
:103A0000BF92CF921F92EF9282E69EE09F938F9398
:103A10000E949C260FB6F894DEBF0FBECDBF8ECF9E
:103A2000CF93DF9390913A02891730F5C82FD0E0F9
:103A3000CC0FDD1FCC0FDD1FE0913B02F0913C026B
:103A4000EC0FFD1F80819181892BB1F4809142029E
:103A500090914302892B81F471836083CA010E9493
:103A6000792620913B0230913C02C20FD31F9B83E9
:103A70008A83DF91CF9108958BE00E94492E909127
:103A80003A02891788F4E0913B02F0913C0294E0FD
:103A9000899FE00DF11D1124808191818617970780
:103AA00019F48281938108958CE00E94492ECF926F
:103AB000DF92EF92FF92CF93DF93C0914202D091B9
:103AC00043022097B9F121976E01E12CF12CA091CE
:103AD0004102B0E02097D9F020E030E040E050E033
:103AE000BA0180913F0290914002FC01E20FF31F66
:103AF0004F5F5F4F6F4F7F4F2A0F3B1F820F931F08
:103B0000918380834C155D056E057F0550F3809190
:103B10003F0290914002CA9FF001CB9FF00DDA9FC7
:103B2000F00D1124E80FF91F1182108290934B02BF
:103B300080934A02DF91CF91FF90EF90DF90CF907A
:103B40000895FC0113821282118210826F3F710569
:103B500009F07CF48091420290914302892B49F450
:103B60008091410290E08617970714F46093410218
:103B700008950E94AA1A2FB7F89480914A02909152
:103B80004B02009749F0FC014081518150934B0258
:103B900040934A022FBF08958FE00E94492ECF9292
:103BA000DF92EF92FF921F93CF93DF936A017B0125
:103BB0006EED7EE0FB019491981749F0675F7F4FAF
:103BC000FFE06E367F07B1F784E30E94492EFB01C8
:103BD0003896949191FF1AC030EAC3163FE5D30698
:103BE000E104F10408F483C0C0E8CC16CEE7DC069B
:103BF000C1E0EC06F10408F090C0D0E4CD16DFEB94
:103C0000DD06E104F104C8F414E022C0F8EBCF169D
:103C1000F7E4DF06E104F10490F0A0ECCA16AEE38D
:103C2000DA06A1E0EA06F10408F475C0C114BBEF9E
:103C3000DB06B4E0EB06F10438F315E009C037EF1A
:103C4000C31638E0D306E104F10408F05FC011E0C8
:103C5000FB013396A591B491FB013596C591D491A2
:103C6000FB0137963491E82FE695E695E695F0E06E
:103C7000EE0FFF1FEA53F14F459154918770E1E039
:103C8000F0E07F0101C0EE0C8A95EAF7FB01319666
:103C9000C590D490892F8170A038B10509F44BC02C
:103CA000EFB7F8949881977011F0191341C01883F9
:103CB00081112EC09FB7F894622F70E0E6017983DE
:103CC00068839FBF9C913160392B3C93DA01119638
:103CD0009C911197E92A1196EC92EFBFB601DF9102
:103CE000CF911F91FF90EF90DF90CF900895A8EDB6
:103CF000CA16A7E2DA06E104F10468F4B7EFCB16BE
:103D0000B8E0DB06E104F10408F4A1CF12E0A0CF93
:103D1000E6012883D7CF13E09BCFC114EBEFDE067B
:103D2000E4E0EE06F10410F416E092CF17E090CF35
:103D300082E30E94492E83E30E94492EFC014481C4
:103D4000558166817781208580810C94CF1D0F93EA
:103D50001F93CF93DF93FC01A189B2898D919C9130
:103D60001197928B818B16968D919C911797C08598
:103D7000D185228521113FC02FB7F894AC0155277A
:103D8000598348832FBF20914A0230914B021196EC
:103D90003C932E93B0934B02A0934A02A189B2891F
:103DA000109759F5278530898217930741F083854D
:103DB0009485A585B6850097A105B10531F480E00D
:103DC000DF91CF911F910F910895448155816681B4
:103DD0007781840F951FA61FB71F84839583A683C1
:103DE000B78380E795E29383828381E0DF91CF916F
:103DF0001F910F9108958883C6CF12964D915D91C2
:103E00006D917C911597278530898217930741F032
:103E100083859485A585B6850097A105B10551F4E4
:103E2000448355836683778381E0DF91CF911F912F
:103E30000F9108950481158126813781800F911F8C
:103E4000A21FB31F2B2F84179507A607270B27FF49
:103E5000E7CF82E20E94492EEF92FF920F931F93C9
:103E6000CF93DF937C0166EA7FE1DC018C910E94B5
:103E70003F1D8C010E94BB1DEC01F70184819581DF
:103E8000A681B7818A839B83AC83BD83808591851E
:103E90009F838E83F89419821882D80151968D9150
:103EA0009C915297892BB9F15396ED91FC915497BF
:103EB000D183C0835496DC93CE93539780E090E0F7
:103EC0007894892B39F4DF91CF911F910F91FF9056
:103ED000EF900895C8010E94D32BD80112968D91BE
:103EE0009C91139780579542F1F08A819B81AC8118
:103EF000BD8127EA3EE1F8013383228384839583E1
:103F0000A683B783C801DF91CF911F910F91FF90D6
:103F1000EF900C94092CF801D48BC38BD28BC18BFE
:103F200081E090E0CDCF8A819B81AC81BD81F80199
:103F30004481558166817781272F481759076A0781
:103F40002B0B27FFD6CF82E20E94492ECF92DF9221
:103F5000EF92CF93DF93EC01488559856A857B8585
:103F60002C858C810E94CF1D6B01E82E45E150E02D
:103F700066EA7FE188810E94101DFC01C086D1861F
:103F8000E28688899989908B87878C899D89AE89FB
:103F9000BF8983879487A587B68787EA9EE1938345
:103FA000828368E070E0CF014196DF91CF91EF907E
:103FB000DF90CF900C94A11DCF93DF93DC011C9672
:103FC000ED91FC911D971E969C911E971F96CD9189
:103FD000DC91509751962C9188E005C09083660F34
:103FE0009083815049F067FFF9CF288360959083D3
:103FF000660F90838150B9F7DF91CF9108950F93A9
:104000001F93CF93DF93EC016EE170E288810E94F1
:104010003F1D8C016AEF0E94DC1F6C81611105C09D
:10402000DF91CF911F910F91089548855985C8015F
:10403000DF91CF911F910F910C94302BCF92DF9293
:10404000EF92FF920F931F93CF93DF938C0142E186
:1040500050E06EE170E2FC0180810E94101DEC01D5
:1040600060E0F80180850E9402246C877D878E873E
:1040700060E0F80184850E9402246F87788B898B29
:1040800061E0F80184810E94022468EFCE010E9461
:10409000DC1F60E2CE010E94DC1FF8940E943B25E9
:1040A0006B017C0160E0CE010E94DC1F0E943B2579
:1040B0007894688379838A839B83DC01CB018C1994
:1040C0009D09AE09BF09F801C088D188E288F3884C
:1040D0008C159D05AE05BF0540F4C81AD90AEA0A39
:1040E000FB0ACC82DD82EE82FF82F8010489158909
:1040F0002689378980179107A207B30740F4081B68
:10410000190B2A0B3B0B088719872A873B87DF91FE
:10411000CF911F910F91FF90EF90DF90CF90089576
:104120000F931F93CF93DF93EC016EE170E28881D0
:104130000E943F1D8C0168EF0E94DC1F6C816111A1
:1041400005C0DF91CF911F910F9108954885598542
:10415000C801DF91CF911F910F910C94302BCF921A
:10416000DF92EF92FF92CF93DF93FC01A085B185A0
:1041700082858C93968581E089278687C82FC170B8
:10418000C688D788E08CF18C97859F5FD1899D1771
:1041900008F05FC0892F869586958695DF01A80F68
:1041A000B11D5A962C9130E0892F877002C0359549
:1041B00027958A95E2F72170B701A601C217A9F0E9
:1041C00033C0892F869586958695DF01A80FB11D8E
:1041D0005A962C9130E0892F877002C0359527952B
:1041E0008A95E2F72170C2131FC04C0D5D1D6E1D34
:1041F0007F1D9F5F9D1728F388E892E29383828357
:1042000084819581A681B781480F591F6A1F7B1F42
:10421000448355836683778381E0DF91CF91FF905C
:10422000EF90DF90CF900895978784819581A68144
:10423000B781480F591F6A1F7B1F448355836683CC
:10424000778381E0DF91CF91FF90EF90DF90CF9067
:104250000895B701A601D0CF0F931F93CF93DF939B
:104260008C0168E17AE2DC018C910E943F1DEC0137
:10427000D8011496EC918F898E0F8F8BF8948E85D0
:10428000E817D0F48E1BF0E03F96EC0FFD1FDE0127
:104290001F962FEF280F30E0205F3F4F2C0F3D1F60
:1042A00091919D93A217B307D9F78E877894DF91E8
:1042B000CF911F910F9108951E868EEF888F78946D
:1042C000DF91CF911F910F9108950F931F93CF937B
:1042D000DF938C0168E17AE2FC0180810E943F1D3E
:1042E000EC010E94D32BF80184819581A681B781CE
:1042F0008C839D83AE83BF834085518562857385A2
:10430000488759876A877B8780898D878C871E8637
:104310001F8A8EEF888F8485898F87FD10C0452B7B
:10432000462B472B29F4DF91CF911F910F910895D0
:10433000CE01DF91CF911F910F910C94092C84E253
:104340000E94492E0F931F93CF93DF938C0168E156
:104350007AE2DC018C910E943F1DFC01D801149689
:104360009C91828D9817B8F4292F30E0E901CC0F89
:10437000DD1F2C0F3D1FEF01C20FD31FF801648515
:1043800080850E940D1A6B8F7C8F8D8FDF91CF916E
:104390001F910F91089585E20E94492ECF93DF93DC
:1043A000EC018E8585FD0DC0688579858A8541E0A3
:1043B0000E94461A8E85807381608E87DF91CF912F
:1043C0000895E885F9858A852FB7F8949281982B0E
:1043D00092839181892B81832FBF8E858073816029
:1043E0008E87DF91CF910895CF93DF93FC01A38552
:1043F000B4855C918785982F977021E030E001C0EB
:10440000220F9A95EAF7982F969596959695DF0143
:10441000A90FB11D5A969C915A9745854523E1F005
:10442000292B5A962C938F5F90898917E8F48787F8
:10443000448155816681778186899789A08DB18D68
:10444000840F951FA61FB71F84839583A683B78308
:1044500081E0DF91CF910895209529235A962C93DE
:104460008F5F9089891718F3EF01CF010E94CE2149
:104470008E8588608E871092750281E080934C0251
:1044800080E0DF91CF910895CF93DF93FC01A38566
:10449000B4859C9185858923E9F08685846086872B
:1044A000878591E0980F9787803408F5448155817E
:1044B0006681778186899789A08DB18D840F951F3C
:1044C000A61FB71F84839583A683B78381E0DF91FE
:1044D000CF910895868582FFE3CF178684EF91E21E
:1044E00093838283CF01DF91CF910C94F421EF016C
:1044F000108ACF010E94CE218E8588608E8710920F
:10450000750281E080934C0280E0DF91CF910895A5
:104510000F931F93CF93FC01C089CC23E9F18685CB
:1045200085FD23C0178684E492E293838283868983
:104530009789A08DB18D880F991FAA1FBB1F880F67
:10454000991FAA1FBB1F4481558166817781840F03
:10455000951FA61FB71F84839583A683B783C1E0E9
:104560008C2FCF911F910F910895A385B4859585C8
:104570002FB7F89484FF21C012968C911297892B43
:10458000909512968C93129711968C91119798236F
:1045900011969C932FBFC6CF8C010E94CE21F801AB
:1045A0008685886086871092750281E080934C0230
:1045B0008C2FCF911F910F91089512968C91129785
:1045C00090958923DECFCF93DC0114969C911497AC
:1045D00020E030E0C22FF901E259F04FE4919E173C
:1045E00041F02F5F3F4F20313105A1F78DE20E944E
:1045F000492E87E980937A002830E8F420917E00E4
:1046000081E090E00C2E01C0880F0A94EAF7822B1B
:1046100080937E004FE150E063EE72E28C910E9445
:10462000101DFC0189E293E293838283C28F81E0B3
:10463000858FCF91089520917D003C2F377081E0C8
:1046400090E001C0880F3A95EAF7822B80937D00B5
:10465000E1CFFC0180917A0086FF0EC084819581B4
:10466000A681B7818853984FAF4FBF4F84839583FE
:10467000A683B78381E00895828D909100029817F8
:1046800081F09F3F59F780930002982F9870909384
:104690007B008770806480937C0087ED80937A0034
:1046A000DDCF8FEF80930002209178003091790068
:1046B000858D968D891780F544895589240F351F7E
:1046C0008F5F358B248B858F891760F18689978959
:1046D00028173907C8F1808D918D82179307A0F1B3
:1046E000138E1092750281E080934D0240895189AA
:1046F0006289738980859185A285B385840F951F12
:10470000A61FB71F808B918BA28BB38B848395835D
:10471000A683B78381E0089581E0358B248B858F54
:104720008917A0F6448155816681778184859585B6
:10473000A685B785840F951FA61FB71F8483958311
:10474000A683B78381E00895838D8F5F838F948DD7
:10475000891738F2809150028111C2CF8CE10E94FA
:10476000492EF894DA019C91292F2B7F2C93789471
:10477000DB01ED91FC911197308112962C9123234E
:1047800031E009F430E01F923F93969591701F92AB
:104790009F931F928F938AE89EE09F938F930E942E
:1047A0009C26EDB7FEB738960FB6F894FEBF0FBE45
:1047B000EDBF0895B0990FC080914E0290914F02C5
:1047C000019610921602109215029093180280938F
:1047D000170281E0089581E086BB80914E0290919E
:1047E0004F02019690934F0280934E0220E030E8F2
:1047F00030931602209315029093180280931702AB
:1048000081E00895803678F5E82FE695E695E695FF
:10481000F0E0EE0FFF1FEA53F14FA591B49110970E
:1048200011F1877021E030E0A90102C0440F551F4B
:104830008A95E2F7CA013FB7F89412962C91129725
:1048400061110FC04095242312962C931297119654
:104850002C911197282B11962C9311973FBFBD01D6
:104860000895242BF1CF8CE20E94492E1F920F92C3
:104870000FB60F9211240BB60F92EF92FF920F9387
:104880001F932F933F934F935F936F937F938F93D8
:104890009F93AF93BF93CF93DF93EF93FF93C09119
:1048A0001902D0911A02EA81FB81309709F067C0A2
:1048B000E889F9892A8920838E859F85019709F4E3
:1048C000B6C09F878E8788859985AA85BB854C81D0
:1048D0005D816E817F81480F591F6A1F7B1F4C834A
:1048E0005D836E837F8320832AA123FF0EC00C8506
:1048F0001D85012E000C220B330B800F911FA21F70
:10490000B31F88879987AA87BB87E881F9810481CB
:10491000158126813781872F401751076207830B46
:1049200087FD66C07801F0931A02E0931902DF0157
:104930000190F081E02D0481158126813781872F38
:10494000401751076207830B87FFF1CFF983E88394
:10495000CD93DC9380918400909185008E199F09FE
:1049600097FD25C07894B29945C0F894C09119027A
:10497000D0911A02EA81FB81309709F499CFCE01D8
:1049800019954C815D816E817F818111BECFE88157
:10499000F981E480F580F0931A02E0931902809186
:1049A0008400909185008E199F0997FFDBCF863A8E
:1049B0009F4F0CF04FC0F0928900E0928800FF9169
:1049C000EF91DF91CF91BF91AF919F918F917F91A7
:1049D0006F915F914F913F912F911F910F91FF9098
:1049E000EF900F900BBE0F900FBE0F901F90189579
:1049F0007A01B0CFF894809184009091850097015E
:104A0000281B390B2038314CF4F02091750227FF18
:104A100026C09C01205C304E30938B0020938A008E
:104A200024E026BB909389008093880093CFCE0129
:104A30000E948217E889F9899A8990834C815D8167
:104A40006E817F81A2CF209150022111DECF8AE2B8
:104A50000E94492E7894B299CDCFF8947BCF9C01D7
:104A60002854344F30938B0020938A0024E026BBD7
:104A70007C01F394A0CF2FB7F894609184007091DB
:104A8000850080914E0290914F02B09902C02FBFD5
:104A900008952FBF7F3FE1F30196089578940E9417
:104AA000872C2FEF260F6623C1F0FC018FEF9FEFBD
:104AB00031918327082E8295807F8025092E982F9B
:104AC00082958F700826869598278927880F880FEA
:104AD000880F8025215060F708958FEF9FEF08958C
:104AE00083E20E94492ECF93DF93EC0164EA7FE0DA
:104AF00088810E943F1D488559856C81FC01808119
:104B0000DF91CF910C94C2192F923F924F925F92F6
:104B10006F927F928F929F92AF92BF92CF92DF92CD
:104B2000EF92FF920F931F93CF93DF9300D01F92CA
:104B30001F92CDB7DEB77C012DB73EB73D832C83E6
:104B400064EA7FE0DC018C910E943F1D9B838A8395
:104B5000F701F481F983D70118966D907C9019972D
:104B60001C968D919D910D90BC91A02D80FD6BC0E8
:104B70001C012D015694479437942794F701E0883F
:104B8000F188C22CD12CF9810F2F10E0C8018C0DB7
:104B90009D1D2DB73EB7281B390B0FB6F8943EBFAD
:104BA0000FBE2DBF8DB79EB701965C01A801B30162
:104BB0000E94A32F4501800E911E8401222DA30186
:104BC0006981AA81BB818C910E943819C114D104DA
:104BD00099F0CE0CDF1CF4019601D7018D917D0177
:104BE0008095908189238083D9019D919D01892B96
:104BF0008193CE14DF0489F76981620DA501EA81F2
:104C0000FB8180810E94C219EC81FD810FB6F8946E
:104C1000FEBF0FBEEDBF0F900F900F900F900F9043
:104C2000DF91CF911F910F91FF90EF90DF90CF9088
:104C3000BF90AF909F908F907F906F905F904F90BC
:104C40003F902F90089581E20E94492EAF92BF922B
:104C5000CF92DF92EF92FF920F931F93CF93DF9348
:104C6000CDB7DEB77C01ADB6BEB6FC01C08064EA4C
:104C70007FE08C2D0E943F1DF701648140855185A6
:104C8000D4842DB73EB72D1931090FB6F8943EBF25
:104C90000FBE2DBFEDB7FEB731967F018F012D2DD1
:104CA000FC0180810E943819FF92EF921F92DF92DF
:104CB0001F92CF9286E79EE09F938F930E949C263F
:104CC0002DB73EB7285F3F4F0FB6F8943EBF0FBEDB
:104CD0002DBF0FB6F894BEBE0FBEADBEDF91CF9113
:104CE0001F910F91FF90EF90DF90CF90BF90AF900A
:104CF0000895CF93DF93C0913D02D0913E02AE0163
:104D0000480F591F2DB73EB721503F4F22273A95E4
:104D10002417350770F050933E0240933D02AC01DA
:104D200060E070E0CE010E94BE2FCE01DF91CF91F6
:104D3000089581E10E94492E2F923F925F926F92D7
:104D40007F928F929F92AF92BF92CF92DF92EF921B
:104D5000FF920F931F93CF93DF93CDB7DEB72897C2
:104D60000FB6F894DEBF0FBECDBF809151028823ED
:104D7000C1F028960FB6F894DEBF0FBECDBFDF910D
:104D8000CF911F910F91FF90EF90DF90CF90BF9048
:104D9000AF909F908F907F906F905F903F902F90FB
:104DA000089581E0809351028E01015E1F4F209192
:104DB0009803509097032515C0F4452D50E0CD8CF5
:104DC000DE8C3FEFC31AD30AF60184913A01680ED4
:104DD000711CC3018136910554F1821B9109813602
:104DE000910560F010925102C4CF10929703109277
:104DF000980340E050E0512C20E0E1CF109297035F
:104E000060919803561AE52CF12C70E0695C7C4F98
:104E1000A70187E393E00E94AC2F10929803509271
:104E200097038091C10080628093C100A7019A011D
:104E3000295C3C4F7901F601A491A63008F42BC1FE
:104E4000AA2EB12CF3E0AF1AB108A20EB31EED8D5D
:104E5000FE8D32969491ED8DFE8D3396C590D49053
:104E60002D5F3F4F3E832D83ED8DFE8D8491D701C5
:104E700012968C933601690E711C78866F826F8052
:104E80007884C614D70409F435C18D809E80A81497
:104E9000B90448F0F6018491853009F4BFC008F4E4
:104EA00041C0883018F086E00E94492EF801208128
:104EB0003181F5016D807E80E619F709AF01FF0FA2
:104EC000660B770B49835A836B837C83A901330F6D
:104ED000660B770B69807A808B809C8064167506E0
:104EE0008606970608F4C8C06D807E802FEF621A90
:104EF000720AAD81BE814C931801B4E02B0E311CB7
:104F0000F801228133818A01B901863009F4B7C0E2
:104F1000C3010E94A32F4301800E911E9E828D82A9
:104F20008101A6C0823008F4AEC0833009F4D8C035
:104F3000F801408151813A01812C912C0E5F1F4F65
:104F4000D401C3018096A11DB11D80389105A10532
:104F5000B10508F4C2C0A4019301305F4F4F5F4F09
:104F6000211530444105510508F43FC0D401C30167
:104F700018960097A042B10540F1A40193015C5F2F
:104F8000211531054105504180F0D401C3015CE198
:104F9000B695A795979587955A95D1F78068AD8175
:104FA000BE818C931196BE83AD83D401C30145E1CC
:104FB000B695A795979587954A95D1F78068AD8165
:104FC000BE818C931196BE83AD83D401C3013EE0B4
:104FD000B695A795979587953A95D1F78068AD8155
:104FE000BE818C931196BE83AD83ED81FE81319697
:104FF000D401C30127E0B695A795979587952A9583
:10500000D1F78068AD81BE818C939F012F5F3F4FA8
:105010003E832D83462D4F7740832AC098012E5F13
:105020003F4FF801A081B1818D819E8101966C91E5
:10503000662399F08A159B0580F4FD01319604C022
:10504000A816B90609F447C00196AC0141505109B0
:10505000DA016C9361916111F3CFAC016D807E80B8
:10506000461957094150D3014C939E838D83890182
:105070002FEFC21AD20A03CFB401A30135CFC30167
:105080000E948D2F48CFD8016D907D908D909C907F
:105090000C5F1F4F55CF1A2FD7011C9380911B0215
:1050A00011968C936DEF610FC7010E945125E10E9F
:1050B000F11CF701339790833196808331968EE708
:1050C0008083A52DA10FA09397038091C1008062DA
:1050D0008093C10087CEC501C0CFED81FE8195CF01
:1050E000D8014D915C913A01550F880899080E5FDF
:1050F0001F4F26CF0D811E810E191F0913E0100FBF
:10510000CBCFCF92DF92EF92FF920F931F93CF936B
:10511000DF938C0168E179E2DC018C910E943F1DF4
:10512000EC010E94BB1DFC01D8011496CD90DD90CE
:10513000ED90FC901797C282D382E482F582189694
:105140004D915D916D917C911B974683578360874C
:105150007187F894118210828F8D98A1892B81F02C
:10516000A9A1BAA1ED93FC93FAA3E9A37894DF91E6
:10517000CF911F910F91FF90EF90DF90CF90089506
:10518000FAA3E9A3F8A3EF8F8BA182FD25C0C88AFB
:10519000D98AEA8AFB8A982F94609BA381FD10C06C
:1051A000CE010E94D32BCC82DD82EE82FF828FEF74
:1051B00090E19B838A83CE010E94092C7894D7CFFB
:1051C0004C815D816E817F81872F4C155D056E0559
:1051D0008F0987FFE5CFF2CF488959896A897B8992
:1051E000972F4C155D056E059F0997FFD0CF84E181
:1051F0000E94492ECF93DF93EC0168E179E2888128
:105200000E943F1DF894FC01278D30A1232B69F4E7
:105210004C815D816E817F81FC01438F548F658F4E
:10522000768F7894DF91CF91089585E10E94492E81
:10523000CF92DF92EF92CF93DF93EC0161E088850C
:105240009985AA85BB85892B8A2B8B2B09F460E075
:105250008C810E9402246B01E82E44E250E068E158
:1052600079E288810E94101DFC01C48AD58AE68AF1
:1052700021E0488559856A857B85452B462B472B40
:1052800009F420E04C855D856E857F85452B462B96
:10529000472BB1F430E0232BFC0123A34889598923
:1052A0006A897B89478B508F618F728F6AE070E0CB
:1052B0004F96DF91CF91EF90DF90CF900C94A11D8E
:1052C00030E1E9CFCF93DF93EC016A8D662309F4D7
:1052D00053C0FC0150E031E020E0A38DB48D4C912F
:1052E000958D942309F0532B2F5F330F339626139C
:1052F000F4CF2C85922F952729F08D8585278095D1
:105300009823D9F4888D5D8787FD03C0815070F1A3
:10531000888F4C815D816E817F8188859985AA8582
:10532000BB85840F951FA61FB71F8C839D83AE83FB
:10533000BF8381E0DF91CF910895982F9095292325
:105340008523822B8C879E859830E0F621E0290FFB
:105350002E87FE01E90FF11D87871092750281E00B
:10536000809352028FEF888F5D87D3CF10927502A2
:1053700091E090935202CCCF50E0BBCFAF92BF925E
:10538000DF92EF92FF920F931F93CF93DF93FC0175
:10539000A485B585968547855089E188228933891A
:1053A000F488A588B6887789008D118DD28C808588
:1053B00086279C9384FD20C085FD22C086FD24C0E5
:1053C00087FD26C09C93862F8295807F80876827E3
:1053D0009C9364FD2AC065FD25C066FD1CC067FD69
:1053E0001EC09C93DF91CF911F910F91FF90EF9082
:1053F000DF90BF90AF900895EA01E88285FFDECF8D
:10540000E901F88286FFDCCFE501788387FFDACFF8
:10541000E801D882D7CFF501708367FFE2CFE801BA
:10542000D882DFCFE901F882D8CFFA01E082D3CF6A
:10543000CF93FC01C481C930B8F44C2F50E09A01DD
:10544000220F331F420F531F455E5F4F68E17AE220
:10545000FC0180810E94101DFC01C28F22E639E20E
:1054600033832283CF91089586E20E94492E5F9272
:105470006F927F928F929F92AF92BF92CF92DF9264
:10548000EF92FF920F931F93CF93DF938C01FC0158
:10549000C080D180E280F38084809580A680B78030
:1054A00066246A94660E662301F1EA01712CFFEF0F
:1054B0006F1A7F0A640E751E59900E943B25DC010D
:1054C000CB018C199D09AE09BF0988159905AA055C
:1054D000BB0598F3652DC8010E94BE290E943B259B
:1054E0006B017C01C615D70539F7F801C082D1825E
:1054F000E282F382DF91CF911F910F91FF90EF90A5
:10550000DF90CF90BF90AF909F908F907F906F90E3
:105510005F9008950F931F93CF93DF93EC0162EC9C
:105520007AE288810E943F1D8C01FC0161857285B1
:10553000838541E00E94461A488559856C81C801DF
:10554000DF91CF911F910F910C94372A0F931F93E6
:10555000CF93DF93EC0162EC7AE288810E943F1DD9
:105560008C01FC0161857285838540E00E94461AAA
:10557000488559856C81C801DF91CF911F910F91AA
:105580000C94372ACF92DF92EF92FF920F931F93E2
:10559000CF93DF93EC014BE150E062EC7AE288813B
:1055A0000E94101D8C0160E08C810E940224F80191
:1055B00061877287838760E088850E940224F801F2
:1055C00064877587868760E08C850E940224F801D5
:1055D0006787708B818B60E088890E940224F801C4
:1055E000628B738B848B60E08C890E940224F801AB
:1055F000658B768B878B60E0888D0E940224F80192
:10560000608F718F828FF8940E943B256B017C0123
:1056100060E0C8010E94BE290E943B257894DC010D
:10562000CB018C199D09AE09BF09CC8CDD8CEE8CA9
:10563000FF8C8C159D05AE05BF0548F4C81AD90A24
:10564000EA0AFB0AF801C482D582E682F782DF917A
:10565000CF911F910F91FF90EF90DF90CF90089521
:105660004F925F926F927F928F929F92AF92BF9272
:10567000CF92DF92EF92FF920F931F93CF93DF931E
:105680008C01562E3A01FC0180809180A280B3806B
:10569000C480D580E680F780EA012196FA01408037
:1056A000642D607F0E94DC1F0E943B25DC01CB0142
:1056B00088199909AA09BB098C159D05AE05BF0576
:1056C00098F3642D6295607FC8010E94DC1F0E94E0
:1056D0003B256B017C01F80180849184A284B38412
:1056E000F1E05F1639F15A945A94852D90E00296B4
:1056F000680E791E5990652D607FC8010E94DC1FDD
:105700000E943B25DC01CB018C199D09AE09BF0924
:1057100088159905AA05BB0598F3652D6295607FEC
:10572000C8010E94DC1F0E943B256B017C01C6154D
:10573000D70501F7F801C082D182E282F382DF91BE
:10574000CF911F910F91FF90EF90DF90CF90BF907E
:10575000AF909F908F907F906F905F904F90089543
:1057600080E0089510927502E9E0F2E0848195816D
:10577000A681B781AC01BD015659674E7F4F448366
:105780005583668377839659A74EBF47809305025A
:1057900090930602A0930702B093080281E0089557
:1057A00084E00E94492E4FB7F894E0911902F091DD
:1057B0001A02E817F90729F412C08217930741F07B
:1057C000F9012081318121153105B9F74FBF0895C5
:1057D000DC018D919C91918380834FBF08958481DA
:1057E0009581A681B7818093200290932102A09396
:1057F0002202B09323028081918190931D028093B5
:105800001C028CE192E090931A02809319024FBF20
:105810000895AF92BF92CF92DF92EF92FF921F93C3
:10582000CF93DF93DC011496CD90DD90ED90FC904A
:1058300017971FB7F894C0911902D0911A024C81A2
:105840005D816E817F818F2DC416D506E606870B9C
:1058500087FD1FC0FE010990D881C02D4C815D815C
:105860006E817F819F2DC416D506E606970B97FFA4
:10587000F1CF1196DC93CE93B183A0831FBFDF914C
:10588000CF911F91FF90EF90DF90CF90BF90AF909E
:1058900008955D010E943B252F2DC616D706E80608
:1058A000290B27FD25C082E0CC31D80741F1F50155
:1058B000D183C083C0922002D0922102E0922202C2
:1058C000F0922302B0921D02A0921C028CE192E0A1
:1058D00090931A0280931902809184009091850020
:1058E000C296909389008093880082E086BBC6CFE1
:1058F000809150028111D7CF83E00E94492E809180
:105900001C0290911D02F50191838083D3CFCF9328
:10591000DF93CDB7DEB728970FB6F894DEBF0FBE82
:10592000CDBF89E993E090933E0280933D02FFB69C
:10593000F8941092800001E000938100E4E8F0E028
:105940001182108280819181C29690938900809308
:10595000880012E016BB80819181C29690938B00E3
:1059600080938A0084E086BB81E192E00E94092C4A
:1059700006BB10936F00FFBE9DE088E10FB6F89460
:10598000A895809360000FBE9093600080E48093A0
:1059900060001093C00087E090E09093C500809372
:1059A000C40086E08093C20088EB8093C10081EC44
:1059B0009EE09F938F930E949C260F900F90F894E7
:1059C00084E592E00E94462F8C01892B19F478948B
:1059D0000E94EE07F8940E943B25F62EE72ED82E63
:1059E000C92E80915002811102C00093530222E01F
:1059F00020935002ACE1B2E0B0931A02A0931902D6
:105A0000E9E0F2E0448155816681778114964D93F7
:105A10005D936D937C931797ED93FC9381E092E0F7
:105A2000918380838091840090918500C2969093A9
:105A300089008093880026BB109251020E94571D56
:105A40008FEF888781E1B82E12C0F80143A1407121
:105A50006489758986890E94461AF80183A1982F66
:105A6000907184FD9B2DF80193A310A2178E68E11D
:105A700079E2CE0108960E9478168C01892B29F7CD
:105A80008FEF8F8305C0FC01138E128E0E942318A6
:105A90006AE574E1CE0107960E947816009799F79F
:105AA0008FEF8E831FEF0AC090910002828D9813B2
:105AB00002C010930002868D8111CAC063EE72E2AB
:105AC000CE0106960E947816FC01892B69F78FEFAC
:105AD0008D8304C0FC01258120FDD4C067E77DE0F3
